{
  "_format": "hh-sol-artifact-1",
  "contractName": "CrowdFunding",
  "sourceName": "contracts/CrowdFunding.sol",
  "abi": [
    {
      "inputs": [
        {
          "internalType": "uint256",
          "name": "",
          "type": "uint256"
        }
      ],
      "name": "campaigns",
      "outputs": [
        {
          "internalType": "address",
          "name": "owner",
          "type": "address"
        },
        {
          "internalType": "string",
          "name": "title",
          "type": "string"
        },
        {
          "internalType": "string",
          "name": "description",
          "type": "string"
        },
        {
          "internalType": "uint256",
          "name": "target",
          "type": "uint256"
        },
        {
          "internalType": "uint256",
          "name": "deadline",
          "type": "uint256"
        },
        {
          "internalType": "uint256",
          "name": "amountCollected",
          "type": "uint256"
        },
        {
          "internalType": "string",
          "name": "image",
          "type": "string"
        },
        {
          "internalType": "bool",
          "name": "fundsClaimed",
          "type": "bool"
        }
      ],
      "stateMutability": "view",
      "type": "function"
    },
    {
      "inputs": [
        {
          "internalType": "uint256",
          "name": "_id",
          "type": "uint256"
        }
      ],
      "name": "claimRefund",
      "outputs": [],
      "stateMutability": "nonpayable",
      "type": "function"
    },
    {
      "inputs": [
        {
          "internalType": "address",
          "name": "_owner",
          "type": "address"
        },
        {
          "internalType": "string",
          "name": "_title",
          "type": "string"
        },
        {
          "internalType": "string",
          "name": "_description",
          "type": "string"
        },
        {
          "internalType": "uint256",
          "name": "_target",
          "type": "uint256"
        },
        {
          "internalType": "uint256",
          "name": "_deadline",
          "type": "uint256"
        },
        {
          "internalType": "string",
          "name": "_image",
          "type": "string"
        }
      ],
      "name": "createCampaign",
      "outputs": [
        {
          "internalType": "uint256",
          "name": "",
          "type": "uint256"
        }
      ],
      "stateMutability": "nonpayable",
      "type": "function"
    },
    {
      "inputs": [
        {
          "internalType": "uint256",
          "name": "_id",
          "type": "uint256"
        }
      ],
      "name": "donateToCampaign",
      "outputs": [],
      "stateMutability": "payable",
      "type": "function"
    },
    {
      "inputs": [
        {
          "internalType": "uint256",
          "name": "",
          "type": "uint256"
        },
        {
          "internalType": "address",
          "name": "",
          "type": "address"
        }
      ],
      "name": "donationsByAddress",
      "outputs": [
        {
          "internalType": "uint256",
          "name": "",
          "type": "uint256"
        }
      ],
      "stateMutability": "view",
      "type": "function"
    },
    {
      "inputs": [],
      "name": "getCampaigns",
      "outputs": [
        {
          "components": [
            {
              "internalType": "address",
              "name": "owner",
              "type": "address"
            },
            {
              "internalType": "string",
              "name": "title",
              "type": "string"
            },
            {
              "internalType": "string",
              "name": "description",
              "type": "string"
            },
            {
              "internalType": "uint256",
              "name": "target",
              "type": "uint256"
            },
            {
              "internalType": "uint256",
              "name": "deadline",
              "type": "uint256"
            },
            {
              "internalType": "uint256",
              "name": "amountCollected",
              "type": "uint256"
            },
            {
              "internalType": "string",
              "name": "image",
              "type": "string"
            },
            {
              "internalType": "address[]",
              "name": "donators",
              "type": "address[]"
            },
            {
              "internalType": "uint256[]",
              "name": "donations",
              "type": "uint256[]"
            },
            {
              "internalType": "bool",
              "name": "fundsClaimed",
              "type": "bool"
            }
          ],
          "internalType": "struct CrowdFunding.Campaign[]",
          "name": "",
          "type": "tuple[]"
        }
      ],
      "stateMutability": "view",
      "type": "function"
    },
    {
      "inputs": [
        {
          "internalType": "uint256",
          "name": "_id",
          "type": "uint256"
        }
      ],
      "name": "getDonators",
      "outputs": [
        {
          "internalType": "address[]",
          "name": "",
          "type": "address[]"
        },
        {
          "internalType": "uint256[]",
          "name": "",
          "type": "uint256[]"
        }
      ],
      "stateMutability": "view",
      "type": "function"
    },
    {
      "inputs": [],
      "name": "numberOfCampaigns",
      "outputs": [
        {
          "internalType": "uint256",
          "name": "",
          "type": "uint256"
        }
      ],
      "stateMutability": "view",
      "type": "function"
    },
    {
      "inputs": [
        {
          "internalType": "uint256",
          "name": "_id",
          "type": "uint256"
        }
      ],
      "name": "withdrawFunds",
      "outputs": [],
      "stateMutability": "nonpayable",
      "type": "function"
    }
  ],
  "bytecode": "0x60806040526000600255348015601457600080fd5b50612528806100246000396000f3fe6080604052600436106100865760003560e01c806342a4fda81161005957806342a4fda8146101615780635b7baf641461017d5780639943e3a1146101a6578063a6b03633146101e3578063e2f4b23d1461020e57610086565b806307ca140d1461008b5780630fa91fa9146100b6578063141961bc146100f4578063155dd5ee14610138575b600080fd5b34801561009757600080fd5b506100a061024b565b6040516100ad9190611217565b60405180910390f35b3480156100c257600080fd5b506100dd60048036038101906100d89190611272565b610251565b6040516100eb92919061144d565b60405180910390f35b34801561010057600080fd5b5061011b60048036038101906101169190611272565b610361565b60405161012f98979695949392919061153e565b60405180910390f35b34801561014457600080fd5b5061015f600480360381019061015a9190611272565b61056e565b005b61017b60048036038101906101769190611272565b6107ef565b005b34801561018957600080fd5b506101a4600480360381019061019f9190611272565b6109ab565b005b3480156101b257600080fd5b506101cd60048036038101906101c89190611732565b610c41565b6040516101da9190611217565b60405180910390f35b3480156101ef57600080fd5b506101f8610d83565b6040516102059190611b02565b60405180910390f35b34801561021a57600080fd5b5061023560048036038101906102309190611b24565b61116e565b6040516102429190611217565b60405180910390f35b60025481565b606080600080848152602001908152602001600020600701600080858152602001908152602001600020600801818054806020026020016040519081016040528092919081815260200182805480156102ff57602002820191906000526020600020905b8160009054906101000a900473ffffffffffffffffffffffffffffffffffffffff1673ffffffffffffffffffffffffffffffffffffffff16815260200190600101908083116102b5575b505050505091508080548060200260200160405190810160405280929190818152602001828054801561035157602002820191906000526020600020905b81548152602001906001019080831161033d575b5050505050905091509150915091565b60006020528060005260406000206000915090508060000160009054906101000a900473ffffffffffffffffffffffffffffffffffffffff16908060010180546103aa90611b93565b80601f01602080910402602001604051908101604052809291908181526020018280546103d690611b93565b80156104235780601f106103f857610100808354040283529160200191610423565b820191906000526020600020905b81548152906001019060200180831161040657829003601f168201915b50505050509080600201805461043890611b93565b80601f016020809104026020016040519081016040528092919081815260200182805461046490611b93565b80156104b15780601f10610486576101008083540402835291602001916104b1565b820191906000526020600020905b81548152906001019060200180831161049457829003601f168201915b5050505050908060030154908060040154908060050154908060060180546104d890611b93565b80601f016020809104026020016040519081016040528092919081815260200182805461050490611b93565b80156105515780601f1061052657610100808354040283529160200191610551565b820191906000526020600020905b81548152906001019060200180831161053457829003601f168201915b5050505050908060090160009054906101000a900460ff16905088565b600080600083815260200190815260200160002090503373ffffffffffffffffffffffffffffffffffffffff168160000160009054906101000a900473ffffffffffffffffffffffffffffffffffffffff1673ffffffffffffffffffffffffffffffffffffffff1614610616576040517f08c379a000000000000000000000000000000000000000000000000000000000815260040161060d90611c36565b60405180910390fd5b8060040154421161065c576040517f08c379a000000000000000000000000000000000000000000000000000000000815260040161065390611ca2565b60405180910390fd5b8060030154816005015410156106a7576040517f08c379a000000000000000000000000000000000000000000000000000000000815260040161069e90611d0e565b60405180910390fd5b8060090160009054906101000a900460ff16156106f9576040517f08c379a00000000000000000000000000000000000000000000000000000000081526004016106f090611d7a565b60405180910390fd5b60018160090160006101000a81548160ff02191690831515021790555060008160000160009054906101000a900473ffffffffffffffffffffffffffffffffffffffff1673ffffffffffffffffffffffffffffffffffffffff16826005015460405161076490611dcb565b60006040518083038185875af1925050503d80600081146107a1576040519150601f19603f3d011682016040523d82523d6000602084013e6107a6565b606091505b50509050806107ea576040517f08c379a00000000000000000000000000000000000000000000000000000000081526004016107e190611e2c565b60405180910390fd5b505050565b6002548110610833576040517f08c379a000000000000000000000000000000000000000000000000000000000815260040161082a90611e98565b60405180910390fd5b600080600083815260200190815260200160002090508060040154421061088f576040517f08c379a000000000000000000000000000000000000000000000000000000000815260040161088690611f04565b60405180910390fd5b600034905081600701339080600181540180825580915050600190039060005260206000200160009091909190916101000a81548173ffffffffffffffffffffffffffffffffffffffff021916908373ffffffffffffffffffffffffffffffffffffffff16021790555081600801819080600181540180825580915050600190039060005260206000200160009091909190915055808260050160008282546109389190611f53565b92505081905550806001600085815260200190815260200160002060003373ffffffffffffffffffffffffffffffffffffffff1673ffffffffffffffffffffffffffffffffffffffff168152602001908152602001600020600082825461099f9190611f53565b92505081905550505050565b6000806000838152602001908152602001600020905080600401544211610a07576040517f08c379a00000000000000000000000000000000000000000000000000000000081526004016109fe90611fd3565b60405180910390fd5b8060030154816005015410610a51576040517f08c379a0000000000000000000000000000000000000000000000000000000008152600401610a489061203f565b60405180910390fd5b60006001600084815260200190815260200160002060003373ffffffffffffffffffffffffffffffffffffffff1673ffffffffffffffffffffffffffffffffffffffff1681526020019081526020016000205411610ae4576040517f08c379a0000000000000000000000000000000000000000000000000000000008152600401610adb906120ab565b60405180910390fd5b60006001600084815260200190815260200160002060003373ffffffffffffffffffffffffffffffffffffffff1673ffffffffffffffffffffffffffffffffffffffff16815260200190815260200160002054905060006001600085815260200190815260200160002060003373ffffffffffffffffffffffffffffffffffffffff1673ffffffffffffffffffffffffffffffffffffffff1681526020019081526020016000208190555060003373ffffffffffffffffffffffffffffffffffffffff1682604051610bb590611dcb565b60006040518083038185875af1925050503d8060008114610bf2576040519150601f19603f3d011682016040523d82523d6000602084013e610bf7565b606091505b5050905080610c3b576040517f08c379a0000000000000000000000000000000000000000000000000000000008152600401610c3290612117565b60405180910390fd5b50505050565b6000428311610c85576040517f08c379a0000000000000000000000000000000000000000000000000000000008152600401610c7c906121a9565b60405180910390fd5b600080600060025481526020019081526020016000209050878160000160006101000a81548173ffffffffffffffffffffffffffffffffffffffff021916908373ffffffffffffffffffffffffffffffffffffffff16021790555086816001019081610cf19190612375565b5085816002019081610d039190612375565b508481600301819055508381600401819055506000816005018190555082816006019081610d319190612375565b5060008160090160006101000a81548160ff02191690831515021790555060026000815480929190610d6290612447565b91905055506001600254610d76919061248f565b9150509695505050505050565b6060600060025467ffffffffffffffff811115610da357610da2611607565b5b604051908082528060200260200182016040528015610ddc57816020015b610dc9611193565b815260200190600190039081610dc15790505b50905060005b600254811015611166576000806000838152602001908152602001600020905080604051806101400160405290816000820160009054906101000a900473ffffffffffffffffffffffffffffffffffffffff1673ffffffffffffffffffffffffffffffffffffffff1673ffffffffffffffffffffffffffffffffffffffff168152602001600182018054610e7590611b93565b80601f0160208091040260200160405190810160405280929190818152602001828054610ea190611b93565b8015610eee5780601f10610ec357610100808354040283529160200191610eee565b820191906000526020600020905b815481529060010190602001808311610ed157829003601f168201915b50505050508152602001600282018054610f0790611b93565b80601f0160208091040260200160405190810160405280929190818152602001828054610f3390611b93565b8015610f805780601f10610f5557610100808354040283529160200191610f80565b820191906000526020600020905b815481529060010190602001808311610f6357829003601f168201915b50505050508152602001600382015481526020016004820154815260200160058201548152602001600682018054610fb790611b93565b80601f0160208091040260200160405190810160405280929190818152602001828054610fe390611b93565b80156110305780601f1061100557610100808354040283529160200191611030565b820191906000526020600020905b81548152906001019060200180831161101357829003601f168201915b50505050508152602001600782018054806020026020016040519081016040528092919081815260200182805480156110be57602002820191906000526020600020905b8160009054906101000a900473ffffffffffffffffffffffffffffffffffffffff1673ffffffffffffffffffffffffffffffffffffffff1681526020019060010190808311611074575b505050505081526020016008820180548060200260200160405190810160405280929190818152602001828054801561111657602002820191906000526020600020905b815481526020019060010190808311611102575b505050505081526020016009820160009054906101000a900460ff16151515158152505083838151811061114d5761114c6124c3565b5b6020026020010181905250508080600101915050610de2565b508091505090565b6001602052816000526040600020602052806000526040600020600091509150505481565b604051806101400160405280600073ffffffffffffffffffffffffffffffffffffffff16815260200160608152602001606081526020016000815260200160008152602001600081526020016060815260200160608152602001606081526020016000151581525090565b6000819050919050565b611211816111fe565b82525050565b600060208201905061122c6000830184611208565b92915050565b6000604051905090565b600080fd5b600080fd5b61124f816111fe565b811461125a57600080fd5b50565b60008135905061126c81611246565b92915050565b6000602082840312156112885761128761123c565b5b60006112968482850161125d565b91505092915050565b600081519050919050565b600082825260208201905092915050565b6000819050602082019050919050565b600073ffffffffffffffffffffffffffffffffffffffff82169050919050565b60006112f6826112cb565b9050919050565b611306816112eb565b82525050565b600061131883836112fd565b60208301905092915050565b6000602082019050919050565b600061133c8261129f565b61134681856112aa565b9350611351836112bb565b8060005b83811015611382578151611369888261130c565b975061137483611324565b925050600181019050611355565b5085935050505092915050565b600081519050919050565b600082825260208201905092915050565b6000819050602082019050919050565b6113c4816111fe565b82525050565b60006113d683836113bb565b60208301905092915050565b6000602082019050919050565b60006113fa8261138f565b611404818561139a565b935061140f836113ab565b8060005b8381101561144057815161142788826113ca565b9750611432836113e2565b925050600181019050611413565b5085935050505092915050565b600060408201905081810360008301526114678185611331565b9050818103602083015261147b81846113ef565b90509392505050565b61148d816112eb565b82525050565b600081519050919050565b600082825260208201905092915050565b60005b838110156114cd5780820151818401526020810190506114b2565b60008484015250505050565b6000601f19601f8301169050919050565b60006114f582611493565b6114ff818561149e565b935061150f8185602086016114af565b611518816114d9565b840191505092915050565b60008115159050919050565b61153881611523565b82525050565b600061010082019050611554600083018b611484565b8181036020830152611566818a6114ea565b9050818103604083015261157a81896114ea565b90506115896060830188611208565b6115966080830187611208565b6115a360a0830186611208565b81810360c08301526115b581856114ea565b90506115c460e083018461152f565b9998505050505050505050565b6115da816112eb565b81146115e557600080fd5b50565b6000813590506115f7816115d1565b92915050565b600080fd5b600080fd5b7f4e487b7100000000000000000000000000000000000000000000000000000000600052604160045260246000fd5b61163f826114d9565b810181811067ffffffffffffffff8211171561165e5761165d611607565b5b80604052505050565b6000611671611232565b905061167d8282611636565b919050565b600067ffffffffffffffff82111561169d5761169c611607565b5b6116a6826114d9565b9050602081019050919050565b82818337600083830152505050565b60006116d56116d084611682565b611667565b9050828152602081018484840111156116f1576116f0611602565b5b6116fc8482856116b3565b509392505050565b600082601f830112611719576117186115fd565b5b81356117298482602086016116c2565b91505092915050565b60008060008060008060c0878903121561174f5761174e61123c565b5b600061175d89828a016115e8565b965050602087013567ffffffffffffffff81111561177e5761177d611241565b5b61178a89828a01611704565b955050604087013567ffffffffffffffff8111156117ab576117aa611241565b5b6117b789828a01611704565b94505060606117c889828a0161125d565b93505060806117d989828a0161125d565b92505060a087013567ffffffffffffffff8111156117fa576117f9611241565b5b61180689828a01611704565b9150509295509295509295565b600081519050919050565b600082825260208201905092915050565b6000819050602082019050919050565b600082825260208201905092915050565b600061185b82611493565b611865818561183f565b93506118758185602086016114af565b61187e816114d9565b840191505092915050565b600082825260208201905092915050565b60006118a58261129f565b6118af8185611889565b93506118ba836112bb565b8060005b838110156118eb5781516118d2888261130c565b97506118dd83611324565b9250506001810190506118be565b5085935050505092915050565b600082825260208201905092915050565b60006119148261138f565b61191e81856118f8565b9350611929836113ab565b8060005b8381101561195a57815161194188826113ca565b975061194c836113e2565b92505060018101905061192d565b5085935050505092915050565b61197081611523565b82525050565b60006101408301600083015161198f60008601826112fd565b50602083015184820360208601526119a78282611850565b915050604083015184820360408601526119c18282611850565b91505060608301516119d660608601826113bb565b5060808301516119e960808601826113bb565b5060a08301516119fc60a08601826113bb565b5060c083015184820360c0860152611a148282611850565b91505060e083015184820360e0860152611a2e828261189a565b915050610100830151848203610100860152611a4a8282611909565b915050610120830151611a61610120860182611967565b508091505092915050565b6000611a788383611976565b905092915050565b6000602082019050919050565b6000611a9882611813565b611aa2818561181e565b935083602082028501611ab48561182f565b8060005b85811015611af05784840389528151611ad18582611a6c565b9450611adc83611a80565b925060208a01995050600181019050611ab8565b50829750879550505050505092915050565b60006020820190508181036000830152611b1c8184611a8d565b905092915050565b60008060408385031215611b3b57611b3a61123c565b5b6000611b498582860161125d565b9250506020611b5a858286016115e8565b9150509250929050565b7f4e487b7100000000000000000000000000000000000000000000000000000000600052602260045260246000fd5b60006002820490506001821680611bab57607f821691505b602082108103611bbe57611bbd611b64565b5b50919050565b7f4f6e6c79207468652063616d706169676e206f776e65722063616e207769746860008201527f647261772066756e64732e000000000000000000000000000000000000000000602082015250565b6000611c20602b8361149e565b9150611c2b82611bc4565b604082019050919050565b60006020820190508181036000830152611c4f81611c13565b9050919050565b7f5468652063616d706169676e20686173206e6f7420656e646564207965742e00600082015250565b6000611c8c601f8361149e565b9150611c9782611c56565b602082019050919050565b60006020820190508181036000830152611cbb81611c7f565b9050919050565b7f5468652074617267657420776173206e6f74206d65742e000000000000000000600082015250565b6000611cf860178361149e565b9150611d0382611cc2565b602082019050919050565b60006020820190508181036000830152611d2781611ceb565b9050919050565b7f46756e647320616c726561647920636c61696d65642e00000000000000000000600082015250565b6000611d6460168361149e565b9150611d6f82611d2e565b602082019050919050565b60006020820190508181036000830152611d9381611d57565b9050919050565b600081905092915050565b50565b6000611db5600083611d9a565b9150611dc082611da5565b600082019050919050565b6000611dd682611da8565b9150819050919050565b7f5769746864726177616c206661696c65642e0000000000000000000000000000600082015250565b6000611e1660128361149e565b9150611e2182611de0565b602082019050919050565b60006020820190508181036000830152611e4581611e09565b9050919050565b7f43616d706169676e20646f6573206e6f742065786973742e0000000000000000600082015250565b6000611e8260188361149e565b9150611e8d82611e4c565b602082019050919050565b60006020820190508181036000830152611eb181611e75565b9050919050565b7f5468652063616d706169676e2068617320656e6465642e000000000000000000600082015250565b6000611eee60178361149e565b9150611ef982611eb8565b602082019050919050565b60006020820190508181036000830152611f1d81611ee1565b9050919050565b7f4e487b7100000000000000000000000000000000000000000000000000000000600052601160045260246000fd5b6000611f5e826111fe565b9150611f69836111fe565b9250828201905080821115611f8157611f80611f24565b5b92915050565b7f5468652063616d706169676e206973207374696c6c206163746976652e000000600082015250565b6000611fbd601d8361149e565b9150611fc882611f87565b602082019050919050565b60006020820190508181036000830152611fec81611fb0565b9050919050565b7f5468652074617267657420776173206d65742e00000000000000000000000000600082015250565b600061202960138361149e565b915061203482611ff3565b602082019050919050565b600060208201905081810360008301526120588161201c565b9050919050565b7f4e6f20646f6e6174696f6e7320746f20726566756e642e000000000000000000600082015250565b600061209560178361149e565b91506120a08261205f565b602082019050919050565b600060208201905081810360008301526120c481612088565b9050919050565b7f526566756e64206661696c65642e000000000000000000000000000000000000600082015250565b6000612101600e8361149e565b915061210c826120cb565b602082019050919050565b60006020820190508181036000830152612130816120f4565b9050919050565b7f54686520646561646c696e65206d75737420626520696e20746865206675747560008201527f72652e0000000000000000000000000000000000000000000000000000000000602082015250565b600061219360238361149e565b915061219e82612137565b604082019050919050565b600060208201905081810360008301526121c281612186565b9050919050565b60008190508160005260206000209050919050565b60006020601f8301049050919050565b600082821b905092915050565b60006008830261222b7fffffffffffffffffffffffffffffffffffffffffffffffffffffffffffffffff826121ee565b61223586836121ee565b95508019841693508086168417925050509392505050565b6000819050919050565b600061227261226d612268846111fe565b61224d565b6111fe565b9050919050565b6000819050919050565b61228c83612257565b6122a061229882612279565b8484546121fb565b825550505050565b600090565b6122b56122a8565b6122c0818484612283565b505050565b5b818110156122e4576122d96000826122ad565b6001810190506122c6565b5050565b601f821115612329576122fa816121c9565b612303846121de565b81016020851015612312578190505b61232661231e856121de565b8301826122c5565b50505b505050565b600082821c905092915050565b600061234c6000198460080261232e565b1980831691505092915050565b6000612365838361233b565b9150826002028217905092915050565b61237e82611493565b67ffffffffffffffff81111561239757612396611607565b5b6123a18254611b93565b6123ac8282856122e8565b600060209050601f8311600181146123df57600084156123cd578287015190505b6123d78582612359565b86555061243f565b601f1984166123ed866121c9565b60005b82811015612415578489015182556001820191506020850194506020810190506123f0565b86831015612432578489015161242e601f89168261233b565b8355505b6001600288020188555050505b505050505050565b6000612452826111fe565b91507fffffffffffffffffffffffffffffffffffffffffffffffffffffffffffffffff820361248457612483611f24565b5b600182019050919050565b600061249a826111fe565b91506124a5836111fe565b92508282039050818111156124bd576124bc611f24565b5b92915050565b7f4e487b7100000000000000000000000000000000000000000000000000000000600052603260045260246000fdfea264697066735822122068e598f59757b5f88681de353c5d351c9e4510f7bdaf817ee3da50debd3d1f7f64736f6c634300081b0033",
  "linkReferences": {},
  "deployedLinkReferences": {}
}